:200000000C94350E0C94600E0C94600E0C94600E0C94600E0C94600E0C94600E0C94600E9B
:200020000C94600E0C94600E0C94600E0C94600E0C94600E0C940E990C94600E0C94600E17
:200040000C94600E0C94BDA10C94DBF00C94600E0C940A2C0C94600E0C94600E0C94600E1B
:200060000C94600E0C94600E0C942EED0C94600E0C94600E0C94600E0C94600E0C94600E63
:200080000C9430970C94600E0C94600E084AD73B3BCE016E84BCBFFDC12F3D6C74319ABD70
:2000A00056833DDA3D00C77F11BED9E4BB4C3E916BAAAABE000000803F05A84CCDB2D44E95
:2000C000B93836A9020C50B9918688083CA6AAAA2ABE000000803F4D383420582059205A91
:2000E0002045006563686F3A0043616E6E6F7420656E746572207375626469723A20004DD1
:200100003234004D3233202573006175746F25692E67004572726F723A006572726F7220A5
:2001200077726974696E6720746F2066696C65004E6F74205344207072696E74696E670085
:200140002F005344207072696E74696E67206279746520002E0044656C6574696F6E206672
:2001600061696C65642C2046696C653A200046696C652064656C657465643A002E006F709C
:20018000656E206661696C65642C2046696C653A200057726974696E6720746F2066696C9F
:2001A000653A20002E006F70656E206661696C65642C2046696C653A20002E006F70656E15
:2001C000206661696C65642C2046696C653A200046696C652073656C656374656400205318
:2001E000697A653A200046696C65206F70656E65643A20002E006F70656E206661696C65E7
:20020000642C2046696C653A20004E6F772066726573682066696C653A20004E6F77206416
:200220006F696E672066696C653A20002220706F73002220706172656E743A220053554251
:20024000524F5554494E452043414C4C207461726765743A2200747279696E6720746F2079
:2002600063616C6C207375622D67636F64652066696C6573207769746820746F6F206D61DA
:200280006E79206C6576656C732E204D4158206C6576656C2069733A0053442063617264D9
:2002A000206F6B006F70656E526F6F74206661696C656400766F6C756D652E696E697420CF
:2002C0006661696C656400534420696E6974206661696C006563686F3A0048617264636F68
:2002E0006465642044656661756C742053657474696E6773204C6F616465640053746F726A
:2003000065642073657474696E677320726574726965766564002044002049002020204D1F
:200320003330312050005049442073657474696E67733A00205A0020590020204D323036F9
:20034000205800486F6D65206F666673657420286D6D293A00204500205A002058002042B7
:200360000020540020204D323035205300416476616E636564207661726961626C65733A49
:2003800020533D4D696E20666565647261746520286D6D2F73292C20543D4D696E20747235
:2003A0006176656C20666565647261746520286D6D2F73292C20423D6D696E696D756D2061
:2003C0007365676D656E742074696D6520286D73292C20583D6D6178696D756D205859203A
:2003E0006A65726B20286D6D2F73292C20205A3D6D6178696D756D205A206A65726B2028D5
:200400006D6D2F73292C2020453D6D6178696D756D2045206A65726B20286D6D2F7329002D
:2004200020540020204D323034205300416363656C65726174696F6E3A20533D6163636572
:200440006C65726174696F6E2C20543D7265747261637420616363656C65726174696F6E62
:2004600000204500205A0020590020204D3230312058004D6178696D756D20416363656CB6
:2004800065726174696F6E20286D6D2F7332293A00204500205A0020590020204D32303397
:2004A0002058004D6178696D756D2066656564726174657320286D6D2F73293A0020450087
:2004C000205A0020590020204D393220580053746570732070657220756E69743A00536571
:2004E0007474696E67732053746F726564006563686F3A004572726F723A0053544F50501F
:2005000045442E20005072696E7465722073746F707065642064756520746F206572726FC8
:2005200072732E2046697820746865206572726F7220616E6420757365204D39393920744A
:200540006F20726573746172742E202854656D7065726174757265206973207265736574C4
:200560002E205365742069742061667465722072657374617274696E6729004B494C4C45D5
:20058000442E20005072696E7465722068616C7465642E206B696C6C28292063616C6C65E7
:2005A0006421006F6B00526573656E643A20002200556E6B6E6F776E20636F6D6D616E6410
:2005C0003A2022005A204F6666736574203A20007A5F6D61783A20007A5F6D696E3A200054
:2005E0005A204F6666736574005A204F6666736574206F6B007A5F6D696E3A2000795F6D83
:20060000696E3A2000785F6D696E3A2000205A3A0020593A0020436F756E7420583A2000D2
:2006200020453A00205A3A0020593A00583A004649524D574152455F4E414D453A4D6172EB
:200640006C696E2056313B20537072696E7465722F6772626C206D617368757020666F7213
:200660002067656E36204649524D574152455F55524C3A68747470733A2F2F6769746875F5
:20068000622E636F6D2F4572696B5A616C6D2F4D61726C696E2F2050524F544F434F4C5F8B
:2006A00056455253494F4E3A312E30204D414348494E455F545950453A5833415F38204593
:2006C000585452554445525F434F554E543A3120555549443A30303030303030302D3030FB
:2006E00030302D303030302D303030302D3030303030303030303030300A005833415F38E6
:20070000204F66662E0042656420646F6E652E0020423A0020453A00543A00426564204835
:20072000656174696E672E0048656174696E6720646F6E652E0020573A0020453A00543A81
:200740000048656174696E672E2E2E002042403A0020403A00202F003A00205400202F008D
:2007600020423A00202F006F6B20543A002569206D696E2C2025692073656300456E6420A8
:2007800066696C65206C69737400426567696E2066696C65206C697374004E6F206D6F762D
:2007A000652E00526573756D696E67207072696E74005761697420666F7220757365722E06
:2007C0002E2E000A00205A3A200020593A200020583A20004265640020643A200020623A95
:2007E000200045716E20636F656666696369656E74733A20613A2000486F6D6520582F5905
:20080000206265666F7265205A00486F6D6520582F59206265666F7265205A005A207072D9
:200820006F6265206F75742E20626564005A2070726F6265206F75742E2062656400486F57
:200840006D6520582F59206265666F7265205A00486F6D6520582F59206265666F7265207D
:200860005A00536C6565702E2E2E00FFFFFF000073430000784300009E430000A04000006C
:20088000A04000000040000090C10000B8C100000000000090C10000B8C1000000000000A4
:2008A00061430000614300009E430A00207A3A200020793A200020783A20004265640025FC
:2008C0006920686F757273202569206D696E7574657300446F6E65207072696E74696E677A
:2008E0002066696C650053544F505045442E20005072696E7465722073746F7070656420A8
:2009000064756520746F206572726F72732E2046697820746865206572726F7220616E6466
:2009200020757365204D39393920746F20726573746172742E202854656D706572617475DD
:2009400072652069732072657365742E205365742069742061667465722072657374617227
:2009600074696E6729006F6B004E6F204C696E65204E756D626572207769746820636865A8
:20098000636B73756D2C204C617374204C696E653A20004E6F20436865636B73756D2077AB
:2009A000697468206C696E65206E756D6265722C204C617374204C696E653A20006368656F
:2009C000636B73756D206D69736D617463682C204C617374204C696E653A20004C696E6514
:2009E000204E756D626572206973206E6F74204C617374204C696E65204E756D6265722BF1
:200A0000312C204C617374204C696E653A20004D31313000446F6E6520736176696E672096
:200A200066696C652E006F6B004D3239002020506C616E6E65724275666665724279746558
:200A4000733A20002046726565204D656D6F72793A20004175672032352032303136004364
:200A60006F6D70696C65643A2000286E6F6E652C2064656661756C7420636F6E666967296A
:200A800000207C20417574686F723A200041756720323520323031362031353A32353A30AF
:200AA0003700204C61737420557064617465643A2000312E302E30004D61726C696E00209A
:200AC000536F66747761726520526573657400205761746368646F67205265736574002014
:200AE00042726F776E206F7574205265736574002045787465726E616C20526573657400CD
:200B0000506F7765725570007374617274002200656E717565696E672022002200656E71AF
:200B20007565696E672022006563686F3A0020746F6F206C6F6E6720657874727573696F9D
:200B40006E2070726576656E7465640020636F6C6420657874727573696F6E20707265768A
:200B6000656E746564007C3C3E5E2B3D3F2F5B5D3B2C2A225C0045303A20005A3A20005998
:200B80003A2000583A20004D53312C4D53322050696E730A0024F404D9201BC40C5C0E98B4
:200BA00004C4095F0265077101F405F900FB04B30048048700C10369005803550003034586
:200BC00000BE023A008402310053022A002902250004022000E4011C00C8011900AF0117C5
:200BE000009801140084011300710110006101100051010E0043010D0036010B002B010B92
:200C00000020010B00150109000C01090003010800FB000800F3000800EB000700E400068D
:200C200000DE000600D8000600D2000600CC000500C7000500C2000500BD000400B9000438
:200C400000B5000400B1000400AD000400A9000400A5000300A20003009F0004009B00033A
:200C600000980003009500020093000300900003008D0002008B00030088000200860002EA
:200C80000084000300810002007F0002007D0002007B000200790002007700010076000262
:200CA000007400020072000100710002006F0002006D0001006C0002006A000100690002B5
:200CC00000670001006600010065000100640002006200010061000100600001005F0002F2
:200CE000005D0001005C0001005B0001005A00010059000100580001005700010056000120
:200D000000550001005400010053000000530001005200010051000100500001004F00013B
:200D2000004E0000004E0001004D0001004C0001004B0000004B0001004A0001004900014F
:200D400000480000004800010047000100460000004600010045000000450001004400015D
:200D600000430000004300010042000000420001004100000041000100400001003F000064
:200D8000003F0001003E0000003E0001003D0000003D0001003C0000003C0000003C000166
:200DA000003B0000003B0001003A0000003A00010039000000390001003800000038000064
:200DC00000380001003700000037000100360000003600000036000100350000003500005E
:200DE000003500010034000000340000003400010033000000330000003300010032000054
:200E0000003200000032000100310000003100000031000100300000003000000030000148
:200E2000002F0000002F0000002F0000002F0001002E0000002E0000002E0001002D00003D
:200E4000002D0000002D0000002D0001002C0000002C0000002C0000002C0001002B00002E
:200E6000002B0000002B0000002B0001002A0000002A0000002A0000002A0001002900001E
:200E800000290000002900000029000000290001002800000028000000280000002800000D
:200EA0000028000100270000002700000027000000270000002700010026000000260000F9
:200EC0000026000000260000002600010025000000250000002500000025000000250000E6
:200EE0000025000100240000002400000024000000240000002400010023000000230000D1
:200F00000023000000230000002300000023000000230001002200000022000000220000BB
:200F20000022000000220000002200010021000000210000002100000021000000210000A5
:200F400000210000002100010020000000200000002000000020000000200000002000008E
:200F60000020000000200001001F0000001F0000001F0000001F0000001F0000001F000076
:200F8000001F0001001E0000001E0000001E0000001E00000024F4D43050C38E20C2A24038
:200FA00017828B7011127A910D816CD90AA861E108C7586607615143061E4B5D05C145A7A1
:200FC000041A411104093D9803713931034036DB0265339102D4305402802E1D02632CEEBC
:200FE00001752AC501B028A001102781018F2564012B244B01E0223401AC211F018D200DC7
:2010000001801FFC00841EED00971DDF00B81CD200E61BC600201BBC00641AB200B219A80B
:20102000000A19A0006A189900D117910040178B00B516840031167E00B31579003A157360
:2010400000C7146F0058146A00EE1366008813630025135E00C7125B006C125700151254F1
:2010600000C111510070114F0021114B00D61049008D1047004610440002104200C00F40F0
:2010800000800F3E00420F3C00060F3B00CB0E3800930E37005C0E3500270E3400F30D3283
:2010A00000C10D3100900D3000600D2E00320D2D00050D2C00D90C2B00AE0C2900850C2972
:2010C000005C0C2700350C27000E0C2600E80B2400C40B2400A00B23007D0B23005A0B21D0
:2010E00000390B2100180B2000F80A1F00D90A1E00BB0A1E009D0A1D00800A1D00630A1C4F
:2011000000470A1B002C0A1B00110A1A00F7091A00DD091900C4091900AB0919009209175F
:20112000007B091800630917004C09160036091600200916000A091500F5081500E008145B
:2011400000CC081400B8081400A4081400900813007D0812006B0813005808120046081279
:201160000034081100230811001208110001081100F0071000E0071000D0071000C00710E5
:2011800000B0070F00A107100091070E0083070F0074070F0065070E0057070E0049070EC4
:2011A000003B070D002E070E0020070D0013070D0006070D00F9060C00ED060D00E0060C2B
:2011C00000D4060C00C8060C00BC060C00B0060C00A4060B0099060C008D060B0082060B2E
:2011E0000077060B006C060B0061060A0057060B004C060A0042060A0038060A002E060ADD
:201200000024060A001A060A001006090007060A00FD050900F4050900EB050900E2050944
:2012200000D9050900D0050900C7050900BE050900B5050800AD050800A50509009C050870
:2012400000940508008C050800840508007C050800740508006C050700650508005D050766
:2012600000560508004E050700470507004005080038050700310507002A0507002305072B
:20128000001C050600160507000F0507000805060002050700FB040600F5040700EE0406CC
:2012A00000E8040600E2040700DB040600D5040600CF040600C9040600C3040600BD04064B
:2012C00000B7040600B1040500AC040600A6040600A00405009B04060095040500900406A7
:2012E000008A04050085040500800406007A04050075040500700405006B040500660405E6
:2013000000610405005C04050057040500520405004D04050048040500430405003E04040A
:20132000003A04050035040500300404002C04050027040400230405001E0404001A04041C
:201340000016040500110404000D040400090405000404040000040400FC030400F8030418
:2013600000F4030400F0030400EC030400E8030400E4030400E0030400DC030400D8030405
:2013800000D4030400D0030400CC030400C8030300C50303006563686F3A00656E64737438
:2013A0006F7073206869743A205A00205A3A00656E6473746F7073206869743A2059002066
:2013C000593A00656E6473746F7073206869743A20580020583A00656E6473746F707320B1
:2013E0006869743A20004572726F723A004572723A204D415854454D5020424544005465C7
:201400006D70657261747572652068656174656420626564207377697463686564206F66B1
:20142000662E204D415854454D5020747269676765726564202121004572723A204D494E36
:2014400054454D50003A204578747275646572207377697463686564206F66662E204D49EF
:201460004E54454D50207472696767657265642021004572723A204D415854454D50003AF1
:20148000204578747275646572207377697463686564206F66662E204D415854454D502079
:2014A000747269676765726564202100202D20496E76616C69642065787472756465722047
:2014C0006E756D6265722021001000C902E0002C01000122013001180170010E01B00104B7
:2014E000010002FA00E001F000F002E6009003DC004004D2004005C8004006BE000008B4F4
:2015000000B009AA00D00BA000600E960060118C000015820020197800C01D6E00A0226433
:2015200000B0275A00902C500000314600E0343C0010383200903A2800603C1E00A03D1490
:2015400000803E0A00203F0000504944204175746F74756E652066696E6973686564212067
:2015600050757420746865206C617374204B702C204B6920616E64204B6420636F6E7374B9
:20158000616E74732066726F6D2061626F766520696E746F20436F6E66696775726174691F
:2015A0006F6E2E6800504944204175746F74756E65206661696C6564212074696D656F750D
:2015C000740020403A006F6B20543A006F6B20423A00504944204175746F74756E65206627
:2015E00061696C6564212054656D706572617475726520746F6F206869676800204B643AE2
:201600002000204B693A2000204B703A200020436C61737369632050494420002054753A25
:201620002000204B753A2000206D61783A2000206D696E3A200020643A2000206269617335
:201640003A20002D2D3A2D2D002D2D2D005344002059000120000120004D323100496E6999
:20166000742E2053442063617264004E6F2053442063617264004D3231004368616E676533
:201680002053442063617264005072696E742066726F6D2053440053746F70207072696EC2
:2016A0007400526573756D65207072696E74005061757365207072696E7400436F6E7472A7
:2016C0006F6C00507265706172650054756E6500496E666F2073637265656E00052E2E0037
:2016E0000452656672657368004D61696E004D3234004D3233202573004D383420582059CB
:20170000205A204500526573746F7265206661696C73616665004C6F6164206D656D6F72EB
:20172000790053746F7265206D656D6F7279004D6F74696F6E0054656D70657261747572CB
:2017400065004D61696E004573746570732F6D6D004573746570732F6D6D005A737465708F
:20176000732F6D6D005A73746570732F6D6D005973746570732F6D6D005973746570732F13
:201780006D6D005873746570732F6D6D005873746570732F6D6D00412D72657472616374EC
:2017A00000412D7265747261637400416D6178206500416D6178206500416D6178207A008D
:2017C000416D6178207A00416D6178207900416D6178207900416D6178207800416D617802
:2017E0002078005654726176206D696E005654726176206D696E00566D696E00566D696E6F
:2018000000566D6178206500566D6178206500566D6178207A00566D6178207A00566D61F6
:2018200078207900566D6178207900566D6178207800566D617820780056652D6A65726B66
:201840000056652D6A65726B00567A2D6A65726B00567A2D6A65726B005678792D6A6572ED
:201860006B005678792D6A65726B00416363656C00416363656C005A204F6666736574004C
:201880005A204F666673657400436F6E74726F6C00507265686561742041425320636F6E67
:2018A00066005072656865617420504C4120636F6E66005049442D43005049442D4300504C
:2018C00049442D44005049442D44005049442D49005049442D49005049442D5000504944DF
:2018E0002D5000200220466163740020022046616374002002204D6178002002204D61781B
:20190000002002204D696E002002204D696E004F6666004F6E20004F6666004F6E200041CA
:2019200075746F74656D700046616E2073706565640046616E207370656564004265640002
:20194000426564004E6F7A7A6C65004E6F7A7A6C6500436F6E74726F6C0053746F7265206A
:201960006D656D6F72790042656400426564004E6F7A7A6C65004E6F7A7A6C650046616E9F
:201980002073706565640046616E2073706565640054656D70657261747572650053746F0C
:2019A0007265206D656D6F72790042656400426564004E6F7A7A6C65004E6F7A7A6C65007D
:2019C00046616E2073706565640046616E2073706565640054656D706572617475726500ED
:2019E0004D6F7665206178697300436F6F6C646F776E005072656865617420414253005027
:201A000072656865617420504C41004731205A302E34204636303000426564204C65766519
:201A20006C205465737400473239004175746F204C6576656C696E670047323800417574FE
:201A40006F20686F6D65004D38340044697361626C65207374657070657273004D61696EC6
:201A6000004D6F766520302E316D6D004D6F766520316D6D004D6F76652031306D6D005042
:201A8000726570617265004578747275646572004D6F7665205A004D6F76652059004D6F97
:201AA00076652058004D6F76652061786973004578747275646572005A0059005800507247
:201AC000656865617420414253204265640050726568656174204142532031005072657037
:201AE000617265005072656865617420504C4120426564005072656865617420504C4120D7
:201B000031005072657061726500466C6F77203000466C6F77203000466C6F7700466C6F3C
:201B2000770046616E2073706565640046616E2073706565640042656400426564004E6FCF
:201B40007A7A6C65004E6F7A7A6C65005370656564005370656564004D61696E0054726FA2
:201B60006E7879203344205072696E7465720042617365206F6E204D61726C696E56312EBB
:201B800030005833415F56312E31005833415F38000A0020000A00207A3A200020793A2086
:201BA0000020783A200000002100240027002A0000002200250028002B00000020002300C0
:201BC00026002900020202020202020204040404040404040303030303030303010101016A
:201BE0000101010101020408102040800102040810204080010204081020408080402010F4
:201C000008040201000000010200000000000000040307060000000000000000000000009E
:201C200000000000494E46494E4954594E414ECDCCCC3D0AD7233C17B7D13877CC2B32956F
:201C400095E6241FB14F0A000020410000C84200401C4620BCBE4CCA1B0E5AAEC59D7400F8
:201C60009E2C5D2FF4E19BEC562F11241FBECFEFD0E4DEBFCDBF14E0A0E0B1E0ECE0F2EFCE
:201C800001E00BBF02C007900D92A831B107D9F71BBE12E1A8E1B4E001C01D92A538B10752
:201CA000E1F71CE1C8E6DCE104C02297FE010E94ABF8C036D107C9F70E943AF30C94F9F835
:201CC0000C940000CF93DF93BC018230910510F462E070E0A0918112B0918212ED01E0E0AE
:201CE000F0E040E050E021C0888199818617970769F48A819B81309719F09383828304C052
:201D00009093821280938112FE0134C06817790738F44115510519F08417950708F4AC01B3
:201D2000FE018A819B819C01E9012097E9F641155105A9F1CA01861B970B049708F4BA01BA
:201D4000E0E0F0E02AC08D919C91119784179507F9F46417750781F412968D919C911397E9
:201D6000309719F09383828304C09093821280938112FD0132964CC0CA01861B970BFD0179
:201D8000E80FF91F6193719302978D939C9340C0FD01828193819C01D9011097A1F6809179
:201DA0007F1290918012892B41F480917302909174029093801280937F1240917502509157
:201DC00076024115510541F44DB75EB78091710290917202481B590B20917F12309180121C
:201DE000CA01821B930B8617970780F0AB014E5F5F4F8417950750F0420F531F509380127C
:201E000040937F12F9016193719302C0E0E0F0E0CF01DF91CF910895CF93DF93009709F475
:201E200050C0EC0122971B821A82A0918112B0918212109709F140E050E0AC17BD0708F1A9
:201E4000BB83AA83FE0121913191E20FF31FAE17BF0779F48D919C911197280F391F2E5F9A
:201E60003F4F3983288312968D919C9113979B838A834115510571F4D0938212C0938112B7
:201E800020C012968D919C911397AD01009711F0DC01D3CFFA01D383C28321913191E20F05
:201EA000F31FCE17DF0769F488819981280F391F2E5F3F4FFA01318320838A819B8193838C
:201EC0008283DF91CF910895A0E0B0E0EAE6FFE00C94C8F8EC015B016115710519F0FB0137
:201EE00091838083F9908F2D90E00E94AFF8892BC9F7FDE2FF1621F4F990EE24E39405C079
:201F00002BE2F21609F4F990EE248E0101501040C80164E27CE143E050E00E940312892BBA
:201F200001F58E010E5F1F4FC80167E27CE145E050E00E940312892B19F48E01095F1F4FA0
:201F4000A114B10419F0F50111830083E0FC04C070E090E080E814C070E090E080E86FEFDF
:201F600008C1C8016CE27CE143E050E00E940312892B69F4A114B10429F470E090E080EC56
:201F80006FE7F7C02296F501D183C083F6CF8824992440E050E060E070E0EF2DE053EA3078
:201FA000A0F5F2E0EF2A8E2D90E09C0128703070E2FE06C0232B79F50894811C911C2BC06E
:201FC000232B19F0089481089108DB01CA0112E0880F991FAA1FBB1F1A95D1F7480F591F1B
:201FE0006A1F7B1F440F551F661F771F4E0F511D611D711D483929E9520729E9620729E194
:20200000720748F084E0E82A06C0EE3F31F4E3FC39C098E0E92AF990C0CFE53311F0E531D7
:2020200089F529912D3219F4E0E1EE2A05C02B3219F081E090E003C0299182E090E0E22FC7
:20204000E053EA3018F0C81BD90B1CC020E030E0FCE020383F075CF4C901880F991F880FFE
:20206000991F280F391F220F331F2E0F311DE991E053EA3068F3E4FE03C0309521953F4F3B
:20208000820E931ECE2CDD24E1FE07C0A114B10421F02197F501D183C083CB01BA010E9475
:2020A00014F57B018C01F3E0CF22DD2423E0C216D10421F417FB109517F910955701680157
:2020C000C801B70120E030E040E050E00E9474F4882309F44AC097FE0DC023E4E22E2CE1DD
:2020E000F22E9094819491089394C0E2D0E000E010E012C09BE5E92E9CE1F92EF6CFF701DB
:202100002591359145915491C601B5010E9454F75B016C018C1A9D0A8C169D0684F7D595DE
:20212000C7950F5F1F4F0630110529F08CEF9FEFE80EF91EF1CFC501D6017C018D018C2DCB
:20214000880F8D2D881F8F3F51F0C601B50120E030E040E050E00E9474F4882331F482E25D
:2021600090E090938412809383127E2D9F2D802F612F272F392F482F562FB901CA01CDB715
:20218000DEB7ECE00C94E4F82F923F925F926F927F928F929F92AF92BF92CF92DF92EF9296
:2021A000FF920F931F93CF93DF938C011B01EA016115710519F0FB0191838083209749F0DA
:2021C000CE010297839728F020E030E040E050E0F6C0F801A1908F018A2D90E00E94AFF825
:2021E000892BB9F7FDE2AF1631F4F801A1908F015524539407C0FBE2AF1619F4F801A190F8
:202200008F015524209719F0C031D105C1F4F0E3AF1679F4F8018081883711F0883549F4C0
:20222000F801A1800E5F1F4FF2E05F2AC0E1D0E006C0209721F480E3A816E9F427C0C8308E
:20224000D10531F1C930D10524F4C230D10531F50CC0CA30D10589F0C031D105F9F4C12CFB
:20226000D12CE12CB8E0FB2E28C0C12CD12CE12CA0E4FA2E22C0CAE0D0E0FCECCF2EFCECFF
:20228000DF2EFCECEF2EFCE0FF2E17C0C8E0D0E0C12CD12CE12CE0E1FE2E0FC09E01442737
:2022A00037FD4095542F60E070E080E090E80E946CF8C901DA016C017D0120E030E040E064
:2022C00050E060E03E01882477FC8094982C70EDB72EBA0CE9E0EB1570F48A2D81548A31DC
:2022E00018F499ECB92E06C08A2D81568A3150F589EAB82EBA0C8B2D90E08C179D0714F57B
:202300006F3FE1F0C216D306E406F506B0F0CA01B901A40193010E9426F89B01AC012B0D09
:20232000311D411D511D2130F0E03F07F0E04F07F0E85F0710F461E001C06FEFF801A1902A
:202340008F01C5CF2114310481F0662331F001501040F1011183008308C051FE1AC00250E7
:202360001040F1011183008314C067FF12C050FC05C02FEF3FEF4FEF5FE704C020E030E043
:2023800040E050E882E290E0909384128093831216C050FE08C050954095309521953F4F01
:2023A0004F4F5F4F0CC057FF0AC082E290E090938412809383122FEF3FEF4FEF5FE7B90126
:2023C000CA01DF91CF911F910F91FF90EF90DF90CF90BF90AF909F908F907F906F905F905D
:2023E0003F902F900895FB01DC0105900D920020E1F70895FC0105900020E9F78095909544
:202400008E0F9F1F0895FB01DC014150504088F08D9181341CF08B350CF4805E659161344A
:202420001CF06B350CF4605E861B611171F3990B0895881BFCCFFB01DC014150504048F0DA
:2024400005900D920020C9F701C01D9241505040E0F70895FB0155915523A9F0BF01DC01D3
:202460004D9145174111E1F759F4CD010590002049F04D9140154111C9F3FB014111EFCFA2
:2024800081E090E001970895FB01DC0104C08D910190801921F441505040C8F7881B990B15
:2024A0000895FB01DC0102C001900D9241505040D8F70895FB01DC010D900020E9F7119709
:2024C00001900D920020E1F70895FC018191861721F08823D9F7992708953197CF0108956D
:2024E000FB01DC018D91019080190110D9F3990B0895FB01DC0101900D920020E1F70895FF
:20250000FB01DC014150504030F08D910190801919F40020B9F7881B990B0895FB01DC01BF
:202520004150504048F001900D920020C9F701C01D9241505040E0F70895AEE0B0E0E3EA42
:20254000F2E10C94D0F80D891E898EE08C831A8309838FEF9FE79E838D839E01275E3F4F76
:20256000CE0101966F89788DA9010E94C1122F813885020F131FF80110822E96E4E00C9476
:20258000ECF8ABE0B0E0E7ECF2E10C94C2F83C012B015A01FC0117821682838181FD03C005
:2025A0006FEF7FEFC6C19AE0892E1E010894211C311CF3012381F20123FD859123FF81915D
:2025C0002F01882309F4B2C1853239F423FD859123FF81912F01853229F490E0B3010E9498
:2025E000B414E7CF982FFF24EE249924FFE1FF15D0F09B3269F09C3228F4903259F0933210
:2026000091F40EC09D3249F0903369F441E024C052E0F52A84E0F82A28C098E0F92A25C0FB
:20262000E0E1FE2A22C0F7FC29C0892F80538A3070F4F6FE05C0989C902C1124980E15C0F1
:20264000E89CE02C1124E80EF0E2FF2A0EC09E3229F4F6FC6BC140E4F42A07C09C3619F403
:2026600050E8F52A02C0983649F4F20123FD959123FF91912F01992309F0B8CF892F8554BC
:20268000833018F08052833038F444E050E0A40EB51E5FE359830FC0933631F0933779F0EB
:2026A000933509F056C020C0F5018081898342E050E0A40EB51E610101E010E012C0F5018E
:2026C000C080D180F6FC03C06FEF7FEF02C0692D70E042E050E0A40EB51EC6010E94A91443
:2026E0008C015FE7F52214C0F501C080D180F6FC03C06FEF7FEF02C0692D70E042E050E01A
:20270000A40EB51EC6010E949E148C0150E8F52AF3FE07C01AC080E290E0B3010E94B414B3
:20272000EA948E2D90E008171907A8F30EC0F601F7FC8591F7FE81916F0190E0B3010E940B
:20274000B414E110EA94015010400115110579F7EAC0943611F0993669F5F7FE08C0F501B0
:20276000208131814281538184E090E00AC0F501808191819C01442737FD4095542F82E0D2
:2027800090E0A80EB91E9FE6F92257FF09C050954095309521953F4F4F4F5F4FE0E8FE2A7E
:2027A000CA01B901A1012AE030E00E94E014D82ED21840C0953729F41F2D1F7E2AE030E066
:2027C0001DC01F2D197F9F3661F0903720F4983509F0ACC00FC0903739F0983709F0A6C018
:2027E00004C028E030E00AC0106114FD146020E130E004C014FD166020E132E017FF08C0F0
:20280000F501608171818281938144E050E008C0F50180819181BC0180E090E042E050E0D4
:20282000A40EB51EA1010E94E014D82ED2188FE7F82EF122F6FE0BC05EEFF522D91438F400
:20284000F4FE07C0F2FC05C08FEEF82202C01D2D01C0192DF4FE0DC0FE01ED0DF11D80819B
:20286000803319F499EEF92208C01F5FF2FE05C003C08F2D867809F01F5F0F2DF3FC14C008
:20288000F0FE0FC01E1510F09D2C0BC09D2C9E0C911A1E2D06C080E290E0B3010E94B41495
:2028A0001F5F1E15C0F304C01E1510F4E11A01C0EE2404FF0FC080E390E0B3010E94B41428
:2028C00002FF1DC001FD03C088E790E00EC088E590E00BC0802F867891F001FF02C08BE2A7
:2028E00001C080E2F7FC8DE290E0B3010E94B41406C080E390E0B3010E94B4149A94D914F3
:20290000C0F3DA94F101ED0DF11D808190E0B3010E94B414DD20A9F706C080E290E0B30124
:202920000E94B414EA94EE20C1F743CEF30166817781CB012B96E2E10C94DEF8FC010590AD
:20294000615070400110D8F7809590958E0F9F1F0895FC016150704001900110D8F7809520
:2029600090958E0F9F1F08950F931F93CF93DF938C01EB018B8181FF1BC082FF0DC02E8135
:202980003F818C819D812817390764F4E881F9810193F983E88306C0E885F985802F099519
:2029A000892B31F48E819F8101969F838E8302C00FEF1FEFC801DF91CF911F910F910895F1
:2029C000FA01AA27283051F1203181F1E8946F936E7F6E5F7F4F8F4F9F4FAF4FB1E03ED05F
:2029E000B4E03CD0670F781F891F9A1FA11D680F791F8A1F911DA11D6A0F711D811D911D94
:202A0000A11D20D009F468943F912AE0269F11243019305D3193DEF6CF010895462F477034
:202A2000405D4193B3E00FD0C9F7F6CF462F4F70405D4A3318F0495D31FD4052419302D0CC
:202A4000A9F7EACFB4E0A6959795879577956795BA95C9F700976105710508959B01AC0196
:202A60000A2E06945795479537952795BA95C9F7620F731F841F951FA01D0895FC011282E0
:202A800013820895FC018381882311F081E082830895FC018281811112820895CF93DF93BD
:202AA000DC01FC01EB55FE4F808191810097C9F1019791838083ED01CC5ADF4FFD01ED5817
:202AC000FF4F8BE1019009928150E1F7FD01EE5AFF4FAF58BF4F8D919C911197A157B040E3
:202AE00091838083FD01ED58FF4F20E030E0AD014B555E4F10C02F5F3F4FEF01DF015F9672
:202B00008BE10D9009928150E1F7858D968D329791838083B196DA018D919C912817390767
:202B200050F3DF91CF910895FC0183EB93E0918380838781882321F0CF0104960E944E8A48
:202B40000895CF92DF92EF92FF920F931F93DF93CF93CDB7DEB76F970FB6F894DEBF0FBEF2
:202B6000CDBF8C016B01095A1F4FD8018C9107551040882321F42FE2E22EF12C03C090E527
:202B8000E92EF12CE00EF11E83EB93E09A8389831C821B8218861D82B7016C5F7F4FCE0162
:202BA0000596A60121E00E945C91882391F5E3EEF0E0949108C08091C00085FFFCCF909341
:202BC000C600319694919923B1F7E9EEF0E0949108C08091C00085FFFCCF9093C60031967B
:202BE00094919923B1F709C08091C00085FFFCCF0894C11CD11C9093C600F6019081992350
:202C000099F78091C00085FFFCCF8AE08093C6005AC0F801EB55FE4F208131812A3031053E
:202C200008F040C02F5F3F4F3183208321503040F90185E0EE0FFF1F8A95E1F7E21BF30BDC
:202C4000ED58FF4FE00FF11F13C0AF01415E5F4FBF018BE1DB010D90BD01DA010D92AD0187
:202C60008150C1F7929182913296968F858F7F9721503040BFEF2E3F3B0739F7D801AD5832
:202C8000BF4FF70134968BE101900D928150E1F70F581F4FF70182819381D8018D939C9313
:202CA00001571040D801AC5ABF4FFE0135968BE101900D928150E1F70E5A1F4F8B819C8171
:202CC000F80191838083CE0101960E9494156F960FB6F894DEBF0FBECDBFCF91DF911F9167
:202CE0000F91FF90EF90DF90CF900895EF92FF920F931F938C013EECE32E31E0F32EE80E65
:202D0000F91EC7010E94008AC7010E944E8AF801108211821F910F91FF90EF900895CF92EC
:202D2000DF92EF92FF920F931F93CF93DF937C016B01DB010D900020E9F78D010150104057
:202D4000061B170BEEECF1E0EE0EFF1ED7011C92E2E3FEEFEE0EFF1ECB016EE470E00E940B
:202D60006512EC01009731F4F8013197EC0DFD1D86010EC060E270E00E9465128C010F5F64
:202D80001F4FCE016AE270E00E946512FC0131978DE081838AE082831382C70186539E4F79
:202DA000B8010E945E928EEC91E0E80EF91ED7018C91882319F1E3E1F1E0949108C0809193
:202DC000C00085FFFCCF9093C600319694919923B1F7EAE1F1E0949108C08091C00085FFCD
:202DE000FCCF9093C600319694919923B1F78091C00085FFFCCF8AE08093C600DF91CF919C
:202E00001F910F91FF90EF90DF90CF900895CF93DF93EC018B81882309F43BC0E2E4F1E0E2
:202E2000949108C08091C00085FFFCCF9093C600319694919923B1F7CD57DD4F4881598159
:202E40006A817B81C358D2408CE994E02AE030E00E94392DE0E4F1E0949108C08091C00000
:202E600085FFFCCF9093C600319694919923B1F7C558DD4F488159816A817B818CE994E00E
:202E80002AE030E00E94392D8091C00085FFFCCF12C0E0E3F1E0949108C08091C00085FF48
:202EA000FCCF9093C600319694919923B1F78091C00085FFFCCF8AE08093C600DF91CF91DB
:202EC00008952F923F924F925F926F927F928F929F92AF92BF92CF92DF92EF92FF920F9375
:202EE0001F93DF93CF93CDB7DEB7AC970FB6F894DEBF0FBECDBF5C014B01FC018381882354
:202F000009F438C1C50182539E4F0E944E8AF50112821A8A1D8A198A188A83EB93E09F8798
:202F20008E875EE4C52ED12CCA0CDB1C2FE230E0A20EB31EF601B182A08221ED3FEFA20EA3
:202F4000B31EF40180818F3209F090C0C4016FE270E00E9465127C010894E11CF11C3E01BF
:202F60000894611C711C260142E1242E312C2C0E3D1E77C0C7016FE270E00E9465126C01F7
:202F8000009709F481C0E816F90608F07DC08C010E191F09C301B701A8010E948E12060DD4
:202FA000171DF8011082F30107C08091C00085FFFCCF31969093C60090819923B1F7809141
:202FC000C00085FFFCCFFAE0F093C600F201608171816115710519F460E070E002C06C5FE3
:202FE0007F4FC101A30121E00E945C91882371F5EEE7F1E0949108C08091C00085FFFCCF49
:203000009093C600319694919923B1F7FE01319607C08091C00085FFFCCF31969093C6001A
:2030200090819923B1F7ECE7F1E0949108C08091C00085FFFCCF9093C600319694919923D9
:20304000B1F78091C00085FFFCCF8DC02EE030E02C0F3D1FF2013183208376010894E11C4C
:20306000F11CE114F10409F085CF0BC080E590E0A80EB91EF601B182A08220EB3FEFA20EAA
:20308000B31ED82C092D02C0DE2C0F2D8EE490E0A80EB91EF5018081918122EB3FEFA20EBA
:2030A000B31E009719F480E090E001C004966D2D702F0E942E92882339F1EEE6F1E0949136
:2030C00008C08091C00085FFFCCF9093C600319694919923B1F78D2D902F9C01F90107C0F8
:2030E0008091C00085FFFCCF31969093C60090819923B1F783E892E0A80EB91EF501108299
:2031000011821282138232C0E6E5F1E0949108C08091C00085FFFCCF9093C6003196949183
:203120009923B1F78D2D902F9C01F90107C08091C00085FFFCCF31969093C60090819923B7
:20314000B1F7E4E5F1E0949108C08091C00085FFFCCF9093C600319694919923B1F78091D6
:20316000C00085FFFCCF8AE08093C600CE010E960E949415AC960FB6F894DEBF0FBECDBFB6
:20318000CF91DF911F910F91FF90EF90DF90CF90BF90AF909F908F907F906F905F904F907B
:2031A0003F902F900895BF92CF92DF92EF92FF920F931F93CF93DF938C01EB018FE2899381
:2031C000EE24E394FF2475EAC72E71E0D72EC00ED11E6FE1B62E14C0FB9CC00111248D5862
:2031E0009F4F800F911FBE010E94608A02C02196E3948881882319F08CE88E15C0F7F39455
:203200002F2D30E0F601808191812817390720F3E7FC07C0C80182539E4FBE010E94608A26
:2032200001C01882DF91CF911F910F91FF90EF90DF90CF90BF9008952F923F924F925F92E7
:203240006F927F928F929F92AF92BF92CF92DF92EF92FF920F931F93DF93CF93CDB7DEB753
:20326000AD970FB6F894DEBF0FBECDBF6C014B014DA7DC0113968C91882309F44AC3E1EDF0
:20328000F1E0CE0EDF1ED6018C91EFE2FEEFCE0EDF1E882309F419C1222309F0E1C029EE81
:2032A00031E0C20ED31ED6018C91E7E1FEEFCE0EDF1E882371F1E3E1F1E0949108C080911A
:2032C000C00085FFFCCF9093C600319694919923B1F7E6E5F2E0949108C08091C00085FFC7
:2032E000FCCF9093C600319694919923B1F78CE994E061E070E04AE050E00E948D2D809189
:20330000C00085FFFCCF8AE08093C6000E94A62F00C3E3EEF0E0949108C08091C00085FF3E
:20332000FCCF9093C600319694919923B1F7EDE3F2E0949108C08091C00085FFFCCF9093B7
:20334000C600319694919923B1F7F40107C08091C00085FFFCCF31969093C60090819923FE
:20336000B1F7E2E3F2E0949108C08091C00085FFFCCF9093C600319694919923B1F7C60101
:203380002EEE31E0C20ED31EB6010E94D3184BEF5FEFC40ED51ED6019C91E7E1FEEFCE0E19
:2033A000DF1E8DE8989FF0011124E251FE4FEC0DFD1D07C08091C00085FFFCCF31969093DA
:2033C000C60090819923B1F7ECE2F2E0949108C08091C00085FFFCCF9093C6003196949130
:2033E0009923B1F723E832E0C20ED31ED6014D915D916D917C91EDE7FDEFCE0EDF1E8CE9CF
:2034000094E02AE030E00E94392D8091C00085FFFCCF8AE08093C600A60147515E4FDA01EC
:203420002C91E22FF0E0EE0FFF1FEE0FFF1FEC0DFD1DE651FE4F83E892E0C80ED91ED601A0
:203440004D905D906D907C908DE79DEFC80ED91E40825182628273822F5FDA012C932FC047
:20346000E3EEF0E0949108C08091C00085FFFCCF9093C600319694919923B1F7EBE1F2E0C7
:20348000949108C08091C00085FFFCCF9093C600319694919923B1F7F40107C08091C00059
:2034A00085FFFCCF31969093C60090819923B1F78091C00085FFFCCF8AE08093C600C6016E
:2034C00082539E4F0E944E8A39C0E9EEF1E0CE0EDF1ED6011C92E7E1FEEFCE0EDF1EE3EE52
:2034E000F0E0949108C08091C00085FFFCCF9093C600319694919923B1F7EAE0F2E09491F5
:2035000008C08091C00085FFFCCF9093C600319694919923B1F7F40107C08091C00085FF79
:20352000FCCF31969093C60090819923B1F78091C00085FFFCCF8AE08093C600D6011296B9
:203540001C921A8A1D8A198A188A83EB93E09F878E87FEE4AF2EB12CAC0CBD1CEFE2F0E043
:20356000CE0EDF1ED501CD92DC92E1EDFFEFCE0EDF1ED4018C918F3209F090C0C4016FE228
:2035800070E00E9465127C010894E11CF11C3E010894611C711C2501E2E12E2E312C2C0EDE
:2035A0003D1E77C0C7016FE270E00E9465125C01009709F481C0E816F90608F07DC08C0106
:2035C0000E191F09C301B701A8010E948E12060D171DF8011082F30107C08091C00085FF53
:2035E000FCCF31969093C60090819923B1F78091C00085FFFCCFFAE0F093C600D2016D91C7
:203600007C916115710519F460E070E002C06C5F7F4FC101A30121E00E945C91882371F5B2
:20362000E6EFF1E0949108C08091C00085FFFCCF9093C600319694919923B1F7FE013196D8
:2036400007C08091C00085FFFCCF31969093C60090819923B1F7E4EFF1E0949108C08091BC
:20366000C00085FFFCCF9093C600319694919923B1F78091C00085FFFCCF1BC12EE030E0E8
:203680002C0F3D1FF2013183208375010894E11CF11CE114F10409F085CF0BC040E550E0D6
:2036A000C40ED51ED501CD92DC92E0EBFFEFCE0EDF1E082DF92C01C00E2DF601E25BFF4F38
:2036C0002DA5222309F4B1C0608171816115710519F460E070E002C06C5F7F4FC601825312
:2036E0009E4F402F5F2D21E00E945C91882309F46CC04FED51E0C40ED51ED6014D915D91A9
:203700006D917C91ECE9F0E0CE0EDF1ED6014D935D936D937C931397E5E8FDEFCE0EDF1E2E
:20372000E6EEF1E0949108C08091C00085FFFCCF9093C600319694919923B1F7802F9F2D23
:203740009C01F90107C08091C00085FFFCCF31969093C60090819923B1F7EEEDF1E09491F5
:2037600008C08091C00085FFFCCF9093C600319694919923B1F78CE994E02AE030E00E9483
:20378000392D8091C00085FFFCCF8AE08093C60023E832E0C20ED31ED6011D921D921D929E
:2037A0001C921397E0EDF1E0949108C08091C00085FFFCCF9093C600319694919923B1F7CD
:2037C0008091C00085FFFCCF99C0ECEBF1E0949108C08091C00085FFFCCF9093C60031960B
:2037E00094919923B1F7802F9F2D9C01F90107C08091C00085FFFCCF31969093C600908186
:203800009923B1F7EAEBF1E0949108C08091C00085FFFCCF9093C600319694919923B1F758
:203820008091C00085FFFCCF44C0608171816115710519F460E070E002C06C5F7F4FC601E6
:2038400082539E4F402F5F2D26E50E945C91882309F033C0E6EAF1E0949108C08091C0001B
:2038600085FFFCCF9093C600319694919923B1F7802F9F2D9C01F90107C08091C00085FF92
:20388000FCCF31969093C60090819923B1F7E4EAF1E0949108C08091C00085FFFCCF909369
:2038A000C600319694919923B1F78091C00085FFFCCF8AE08093C60028C081E0F60180834C
:2038C000E2E9F1E0949108C08091C00085FFFCCF9093C600319694919923B1F7F40107C04A
:2038E0008091C00085FFFCCF31969093C60090819923B1F78091C00085FFFCCF8AE08093E6
:20390000C600802F9F2D0E9454E2CE010E960E949415AD960FB6F894DEBF0FBECDBFCF91E6
:20392000DF911F910F91FF90EF90DF90CF90BF90AF909F908F907F906F905F904F903F9064
:203940002F900895EF92FF920F931F93CF93DF93EC010E94F3988E0107511E4FD8018C916D
:203960009EECE92E91E0F92EEC0EFD1E8823A1F1C7010E944E8AF8016081615060838DE897
:20398000689FB001112462517E4F6C0F7D1FCE0141E021E00E941C19D801EC91F0E0EE0FB8
:2039A000FF1FEE0FFF1FEC0FFD1FE651FE4F4081518162817381CD57DD4F488359836A83E5
:2039C0007B83C358D240C7010E9436898B81882389F181E08A832EC00E94D098C7010E9492
:2039E0004E8A1A8287ED90E00E943D5980919C09882301F110929C0980915407C82FD0E08A
:203A0000CC0FDD1FCE5FDE4E68817981882777FD8095982F0E9416F52091DC023091DD02B8
:203A20004091DE025091DF020E9482F6181614F419821882DF91CF911F910F91FF90EF9060
:203A40000895FC0181E08183CF0140E021E00E941C190895EF92FF920F931F93CF93DF93C8
:203A60008C01FC01138286A9882321F0C801C3960E944E8A27EAE22E21E0F22EE00EF11E61
:203A8000C70160E04FE10E94F487882309F5E3EEF0E0949108C08091C00085FFFCCF909357
:203AA000C600319694919923B1F7E7ECF2E0949108C08091C00085FFFCCF9093C60031968E
:203AC00094919923B1F78091C00085FFFCCF7DC0E801C455DE4FCE01B70141E00E94F39202
:203AE000882341F5CE01B70140E00E94F392882309F5E3E1F1E0949108C08091C00085FF97
:203B0000FCCF9093C600319694919923B1F7E4EBF2E0949108C08091C00085FFFCCF9093D0
:203B2000C600319694919923B1F78091C00085FFFCCF4BC0C801C396BE010E944F8D88233A
:203B400009F5E3E1F1E0949108C08091C00085FFFCCF9093C600319694919923B1F7E4EABE
:203B6000F2E0949108C08091C00085FFFCCF9093C600319694919923B1F78091C00085FFD8
:203B8000FCCF23C081E0F8018383E3EEF0E0949108C08091C00085FFFCCF9093C6003196B9
:203BA00094919923B1F7E9E9F2E0949108C08091C00085FFFCCF9093C6003196949199233A
:203BC000B1F78091C00085FFFCCF8AE08093C600D801AC5ABF4FF801F3968BE101900D92CF
:203BE0008150E1F7F80181A992A90E5A1F4FF8019183808302551040C8018F96025B1F4F78
:203C0000F80191838083DF91CF911F910F91FF90EF9008952F923F924F925F926F927F9253
:203C20009F92AF92BF92CF92DF92EF92FF920F931F93DF93CF93CDB7DEB7CC55D0400FB6A6
:203C4000F894DEBF0FBECDBF6C01662311F527E832E0C20ED31ED6018C91E9E7FDEFCE0E78
:203C6000DF1E882309F4E6C02FE732E0C20ED31ED601ED90FD900D911C91E1E8FDEFCE0E53
:203C8000DF1E0E9423F1E616F7060807190708F4D1C027E832E0C20ED31ED6011C92E9E785
:203CA000FDEFCE0EDF1ED60113968C91882341F4C6010E942A1DF6018381882309F4BAC0F5
:203CC00000D000D000D0EDB7FEB731967E010894E11CF11CADB7BEB71296FC92EE921197F8
:203CE0008AE091E093838283D6019D968D919C919E97958384830E949D128701EDB7FEB7F3
:203D000036960FB6F894FEBF0FBEEDBF57010AC0D8018C91992787FD90950E94B7F8F80185
:203D200081938F01F50101900020E9F73197EA19FB09802F8E198E175CF363E3A62EB12C48
:203D4000AC0CBD1CC50140E050E060E070E00E94368999245DE3E52EF12CEC0EFD1E2E015A
:203D60000894411C511C4FE1642E712C6C0E7D1E33E0232E31E0332E43C0D8018C9190E02A
:203D80000E94B7F8F80181938F01D7010D900020E9F71197AE19BF09802F8E198A176CF333
:203DA00027968FAD27978E3759F1C701B20145E050E00E948012009719F500D000D000D024
:203DC000EDB7FEB73196ADB7BEB712967C926E92119733822282558244820E949D12EDB7A1
:203DE000FEB736960FB6F894FEBF0FBEEDBFC3010E94B6598FEF90E00E943D59992493943C
:203E0000C501B70140E050E00E946B8C181614F48701BBCF992041F48FEF9FEFD6019E96EE
:203E20009C938E939D9706C0F60185A596A5019696A785A7C45ADF4F0FB6F894DEBF0FBED5
:203E4000CDBFCF91DF911F910F91FF90EF90DF90CF90BF90AF909F907F906F905F904F9041
:203E60003F902F9008952F923F924F925F926F927F928F929F92AF92BF92CF92DF92EF926A
:203E8000FF920F931F93DF93CF93CDB7DEB7CF58D0400FB6F894DEBF0FBECDBF8C013B0109
:203EA0006A0184E090E0C80ED91EF8017196C757DF4FF983E883C958D040C8010496CA570E
:203EC000DF4F99838883C658D040C857DF4F1882C858D040B6E6EB2EF12CEC0EFD1EF70169
:203EE0003B96C557DF4FF983E883CB58D040A8E88A2EA2E09A2E800E911EFAE8AF2EF2E02D
:203F0000BF2EA00EB11EEEE02E2E312C2C0E3D1E77E4472E512C4C0E5D1EC2010496C35782
:203F2000DF4F99838883CD58D040E3EEF0E09491C157DF4F9883CF58D0404FC1F701838589
:203F4000482F50E0BA01687170706031710509F052C1F401208131812130310509F44BC15B
:203F60002230310509F447C1F701DE0111969081903239F08E2F8E19883011F48EE28D9389
:203F80009D933196C557DF4F88819981CB58D040E817F90761F71C921E86F3018081882341
:203FA00029F4C10160E071E00E945A12C101B3010E945A12C101BE016F5F7F4F0E945A12D4
:203FC000C10160E071E00E945A121CA61FA61BA61AA683EB93E099A788A7CE018C96B60180
:203FE000AE014F5F5F4F21E00E945C91882309F03FC0F40180819181892BD1F5C157DF4FBB
:204000009881CF58D040E3EEF0E008C08091C00085FFFCCF9093C600319694919923B1F78E
:20402000E2E0F1E007C08091C00085FFFCCF31969093C60090819923B1F78091C00085FF8C
:20404000FCCFFAE0F093C600FE01319607C08091C00085FFFCCF31969093C6009081992348
:20406000B1F78091C00085FFFCCF8AE08093C600C357DF4FA881B981CD58D040FE01BC9604
:204080008BE101900D928150E1F78AA59BA5F2019383828383EB93E091838083C801B101EB
:2040A000A2010E94331FC2010E949415CE0188960E94941592C0953E09F48FC09E3209F4E5
:2040C0008CC09F3509F489C0F8019189992331F09E3209F482C09F3509F47FC043FD7DC0EE
:2040E00080E06031710509F481E0F80184A7882349F4F7018085873409F06FC081858E3744
:2041000009F46BC0CA57DF4FA881B981C658D040F7018081803241F08E2F8E19883011F49A
:204120008EE28D9380818D933196C557DF4F88819981CB58D040E817F90759F71C92F40175
:2041400080819181009729F5F30107C08091C00085FFFCCF31969093C60090819923B1F797
:20416000CA57DF4FE881F981C658D04007C08091C00085FFFCCF31969093C600908199237B
:20418000B1F78091C00085FFFCCFFAE0F093C60024C08130910539F4F5018081918101963C
:2041A000918380831AC00297C1F4C857DF4FF881C858D0402F2F30E0F50180819181281714
:2041C0003907F1F0C857DF4FF881C858D040FF5FC857DF4FF883C858D040C601B701C757D5
:2041E000DF4F48815981C958D0400E946B8C18160CF4A4CE05C0F7019081992309F05BCFD7
:20420000C157DF4F0FB6F894DEBF0FBECDBFCF91DF911F910F91FF90EF90DF90CF90BF90C6
:20422000AF909F908F907F906F905F904F903F902F900895EF92FF920F931F93DF93CF93B0
:20424000CDB7DEB76F970FB6F894DEBF0FBECDBF7C018C01025B1F4F805B9F4FF80191834D
:20426000808328E832E0E20EF31E21E030E0F701219331937F011182108226E73DEFE20EC9
:20428000F31E049640E050E060E070E00E943689F80120813181DE011596F90134968BE12C
:2042A00001900D928150E1F7F901828193819C838B8383EB93E09A838983C70165E171E07E
:2042C0008E010F5F1F4FA8010E94331FC8010E949415F701E657FD4F808191816F960FB664
:2042E000F894DEBF0FBECDBFCF91DF911F910F91FF90EF900895EF92FF920F931F93DF9399
:20430000CF93CDB7DEB76F970FB6F894DEBF0FBECDBF7C018C01025B1F4F805B9F4FF8013E
:204320009183808328E832E0E20EF31E22E030E0F7013183208328E73DEFE20EF31EF701AE
:20434000E657FD4F60831182049640E050E060E070E00E943689F80120813181DE011596AD
:20436000F90134968BE101900D928150E1F7F901828193819C838B8383EB93E09A838983EC
:20438000C70165E171E08E010F5F1F4FA8010E94331FC8010E9494156F960FB6F894DEBFAF
:2043A0000FBECDBFCF91DF911F910F91FF90EF900895EF92FF920F931F93DF93CF93CDB71B
:2043C000DEB76F970FB6F894DEBF0FBECDBF7C0188E892E0E80EF91EF7011182108288E703
:2043E0009DEFE80EF91E87010D5C1F4FC80140E050E060E070E00E943689DE011596F80138
:204400008BE101900D928150E1F7F70181A992A99C838B8383EB93E09A838983C70165E1B5
:2044200071E08E010F5F1F4FA8010E94331FC8010E9494156F960FB6F894DEBF0FBECDBFC3
:20444000CF91DF911F910F91FF90EF9008950F931F93CF93DF93DC01D3961C92D397D6969F
:204460001C92D697D2961C921E92D19783EB93E0D0969C938E939F97AC5ABF4F1C921396BB
:204480001C92A755B040FD01E05BFF4FAE5ABF4F11961C921E92A255B04091838083ED01F4
:2044A000C159DF4FFE0120E030E0482F148217821382128240839183215E3F4F7F9681E07C
:2044C0002633380799F7A855BE4F89E18C9313961C9258961C921B961C9213961C92A15D7A
:2044E000B140FD01E653FE4FA453BE4F11961C921E9240839183A155BF4F1D921D921D9256
:204500001C92139718961D921D921D921C921397A358B24012961C92129713961C92139743
:204520001C9211961C9211978D0101581D4FF8011082118212821382AB55BE4F11961C92D4
:204540001E92AC5BBF4F1C92FE01C90111920197E9F7A256BF4F81E08C93A758B2409E9659
:204560001C921E929D970E9423F168577C4E8F4F9F4FF8016083718382839383DF91CF91E3
:204580001F910F910895DF93CF93CDB7DEB72B970FB6F894DEBF0FBECDBF809116019091EF
:2045A0001701A0911801B09119018C839D83AE83BF83FE01349624E630E08081F999FECF59
:2045C0001FBA32BD21BD80BD0FB6F894FA9AF99A0FBE2F5F3F4F2836310511F03196EDCF7F
:2045E000E0E4F9E08081F999FECF1FBA32BD21BD80BD0FB6F894FA9AF99A0FBE2F5F3F4F7A
:204600002837310511F03196EDCFE0E3F9E08081F999FECF1FBA32BD21BD80BD0FB6F89451
:20462000FA9AF99A0FBE2F5F3F4F2838310511F03196EDCFE0E5F9E08081F999FECF1FBA79
:2046400032BD21BD80BD0FB6F894FA9AF99A0FBE2F5F3F4F2839310511F03196EDCFE4E60A
:20466000F9E08081F999FECF1FBA32BD21BD80BD0FB6F894FA9AF99A0FBE2F5F3F4F2C3958
:20468000310511F03196EDCFE8E6F9E08081F999FECF1FBA32BD21BD80BD0FB6F894FA9A91
:2046A000F99A0FBE2F5F3F4F203A310511F03196EDCFE0E6F9E08081F999FECF1FBA32BDA3
:2046C00021BD80BD0FB6F894FA9AF99A0FBE2F5F3F4F243A310511F03196EDCFE8E7F9E09E
:2046E0008081F999FECF1FBA32BD21BD80BD0FB6F894FA9AF99A0FBE2F5F3F4F283A31057E
:2047000011F03196EDCFECE2F9E08081F999FECF1FBA32BD21BD80BD0FB6F894FA9AF99AB3
:204720000FBE2F5F3F4F2C3A310511F03196EDCFECE6F9E08081F999FECF1FBA32BD21BDBF
:2047400080BD0FB6F894FA9AF99A0FBE2F5F3F4F203B310511F03196EDCFE0E7F9E0808105
:20476000F999FECF1FBA32BD21BD80BD0FB6F894FA9AF99A0FBE2F5F3F4F243B310511F000
:204780003196EDCFE4E7F9E08081F999FECF1FBA32BD21BD80BD0FB6F894FA9AF99A0FBE6A
:2047A0002F5F3F4F283B310511F03196EDCFE1E4F7E08081F999FECF1FBA32BD21BD80BDE1
:2047C0000FB6F894FA9AF99A0FBE2F5F3F4F243C310511F03196EDCFE9E5F1E18081F9992B
:2047E000FECF1FBA32BD21BD80BD0FB6F894FA9AF99A0FBE2F5F3F4F263C310511F0319648
:20480000EDCFEBE5F1E18081F999FECF1FBA32BD21BD80BD0FB6F894FA9AF99A0FBE2F5F24
:204820003F4F283C310511F03196EDCFEDE5F1E18081F999FECF1FBA32BD21BD80BD0FB620
:20484000F894FA9AF99A0FBE2F5F3F4F2A3C310511F03196EDCFEFE5F1E18081F999FECF96
:204860001FBA32BD21BD80BD0FB6F894FA9AF99A0FBE2F5F3F4F2C3C310511F03196EDCFD2
:20488000E1E6F1E18081F999FECF1FBA32BD21BD80BD0FB6F894FA9AF99A0FBE2F5F3F4FDB
:2048A0002E3C310511F03196EDCFE3E6F1E18081F999FECF1FBA32BD21BD80BD0FB6F894A5
:2048C000FA9AF99A0FBE2F5F3F4F203D310511F03196EDCFE0E5F7E08081F999FECF1FBADC
:2048E00032BD21BD80BD0FB6F894FA9AF99A0FBE2F5F3F4F243D310511F03196EDCFEDEE57
:20490000F2E08081F999FECF1FBA32BD21BD80BD0FB6F894FA9AF99A0FBE2F5F3F4F283DBC
:20492000310511F03196EDCFE1EFF2E08081F999FECF1FBA32BD21BD80BD0FB6F894FA9AF3
:20494000F99A0FBE2F5F3F4F2C3D310511F03196EDCFE5EFF2E08081F999FECF1FBA32BDEA
:2049600021BD80BD0FB6F894FA9AF99A0FBE2F5F3F4F203E310511F03196EDCF80E290E0D1
:204980009B838A83FE0132968081F999FECF1FBA32BD21BD80BD0FB6F894FA9AF99A0FBE9D
:2049A000213E310521F0319621EE30E0EDCF80911A0190911B01A0911C01B0911D0188878A
:2049C0009987AA87BB87FE01389684E690E02081F999FECF1FBA92BD81BD20BD0FB6F89409
:2049E000FA9AF99A0FBE8736910519F001963196EECF86E58983F999FECF1FBA12BC11BC02
:204A000086E580BD0FB6F894FA9AF99A0FBEE4EDF2E0949108C08091C00085FFFCCF9093D6
:204A2000C600319694919923B1F7EEEDF4E0949108C08091C00085FFFCCF9093C6003196F4
:204A400094919923B1F78091C00085FFFCCF8AE08093C6002B960FB6F894DEBF0FBECDBF62
:204A6000CF91DF910895DF93CF93CDB7DEB7E0970FB6F894DEBF0FBECDBFDE011196E3E6CF
:204A8000F3E080E101900D928150E1F7DE015196E3E5F3E080E101900D928150E1F7DE018F
:204AA0009196E3E4F3E080E101900D928150E1F789819A81AB81BC818093400990934109A4
:204AC000A0934209B093430989899A89AB89BC898093300990933109A0933209B093330985
:204AE00089A19AA1ABA1BCA18093500990935109A0935209B09353098D819E81AF81B885F8
:204B00008093440990934509A0934609B09347098D899E89AF89B88D809334099093350944
:204B2000A0933609B09337098DA19EA1AFA1B8A58093540990935509A0935609B093570940
:204B400089859A85AB85BC858093480990934909A0934A09B0934B09898D9A8DAB8DBC8D03
:204B60008093380990933909A0933A09B0933B0989A59AA5ABA5BCA5809358099093590968
:204B8000A0935A09B0935B098D859E85AF85B88980934C0990934D09A0934E09B0934F0928
:204BA0008D8D9E8DAF8DB8A180933C0990933D09A0933E09B0933F098DA59EA5AFA5B8A92B
:204BC00080935C0990935D09A0935E09B0935F090E94F45E80E090E0AAE7B4E48093640922
:204BE00090936509A0936609B093670980E090E8ABE3B5E48093680990936909A0936A0911
:204C0000B0936B0920E030E040E050E02093600930936109409362095093630980E29EE4C3
:204C2000A0E0B0E080932C0990932D09A0932E09B0932F09209378093093790940937A090F
:204C400050937B0980E090E0A0EAB1E480936C0990936D09A0936E09B0936F098DEC9CEC77
:204C6000ACECBEE38093700990937109A0937209B093730980E090E0A0EAB0E480937409E7
:204C800090937509A0937609B09377092093490730934A0740934B0750934C07209345078D
:204CA000309346074093470750934807209341073093420740934307509344078EEB90E056
:204CC00090935A118093591187E390E090935C1180935B112FEF30E030935E1120935D115F
:204CE00080EF90E09093601180935F1185E590E0909362118093611130936411209363116A
:204D000080E090E0A0E0BFE38093500790935107A0935207B09353078AE999E9A1EBB1E47D
:204D20008093ED029093EE02A093EF02B093F00261E77DE38AE89FE30E94ECA06093F10255
:204D40007093F2028093F3029093F40260E070E084EE92E40E94FAA06093F5027093F602A2
:204D60008093F7029093F8020E940AA080E090E0A0E8BFE38093F9029093FA02A093FB0267
:204D8000B093FC02E4EDF2E0949108C08091C00085FFFCCF9093C600319694919923B1F7E9
:204DA000EAEDF2E0949108C08091C00085FFFCCF9093C600319694919923B1F78091C00033
:204DC00085FFFCCF8AE08093C600E0960FB6F894DEBF0FBECDBFCF91DF9108950F931F93C3
:204DE000DF93CF93CDB7DEB72B970FB6F894DEBF0FBECDBFF999FECF12BC11BCF89A80B5FC
:204E0000898380911A0190911B01A0911C01B0911D0188879987AA87BB87FE01349604E61B
:204E200010E0F999FECF12BD01BDF89A80B580830F5F1F4F0836110511F03196F2CFCE0144
:204E40000896BE016C5F7F4F43E050E00E948012009709F09CC18981863509F098C1E0E40D
:204E6000F9E0F999FECF12BD01BDF89A80B580830F5F1F4F0837110511F03196F2CFE0E326
:204E8000F9E0F999FECF12BD01BDF89A80B580830F5F1F4F0838110511F03196F2CFE0E503
:204EA000F9E0F999FECF12BD01BDF89A80B580830F5F1F4F0839110511F03196F2CF0E9405
:204EC000F45EE4E6F9E0F999FECF12BD01BDF89A80B580830F5F1F4F0C39110511F0319628
:204EE000F2CFE8E6F9E0F999FECF12BD01BDF89A80B580830F5F1F4F003A110511F03196A0
:204F0000F2CFE0E6F9E0F999FECF12BD01BDF89A80B580830F5F1F4F043A110511F0319683
:204F2000F2CFE8E7F9E0F999FECF12BD01BDF89A80B580830F5F1F4F083A110511F0319656
:204F4000F2CFECE2F9E0F999FECF12BD01BDF89A80B580830F5F1F4F0C3A110511F0319633
:204F6000F2CFECE6F9E0F999FECF12BD01BDF89A80B580830F5F1F4F003B110511F031961A
:204F8000F2CFE0E7F9E0F999FECF12BD01BDF89A80B580830F5F1F4F043B110511F0319601
:204FA000F2CFE4E7F9E0F999FECF12BD01BDF89A80B580830F5F1F4F083B110511F03196D9
:204FC000F2CFE1E4F7E0F999FECF12BD01BDF89A80B580830F5F1F4F043C110511F03196C4
:204FE000F2CFE9E5F1E1F999FECF12BD01BDF89A80B580830F5F1F4F063C110511F031969E
:20500000F2CFEBE5F1E1F999FECF12BD01BDF89A80B580830F5F1F4F083C110511F0319679
:20502000F2CFEDE5F1E1F999FECF12BD01BDF89A80B580830F5F1F4F0A3C110511F0319655
:20504000F2CFEFE5F1E1F999FECF12BD01BDF89A80B580830F5F1F4F0C3C110511F0319631
:20506000F2CFE1E6F1E1F999FECF12BD01BDF89A80B580830F5F1F4F0E3C110511F031961C
:20508000F2CFE3E6F1E1F999FECF12BD01BDF89A80B580830F5F1F4F003D110511F0319607
:2050A000F2CFE0E5F7E0F999FECF12BD01BDF89A80B580830F5F1F4F043D110511F03196E2
:2050C000F2CFEDEEF2E0F999FECF12BD01BDF89A80B580830F5F1F4F083D110511F03196AD
:2050E000F2CFE1EFF2E0F999FECF12BD01BDF89A80B580830F5F1F4F0C3D110511F0319694
:20510000F2CFE5EFF2E0F999FECF12BD01BDF89A80B580830F5F1F4F003E110511F031967A
:20512000F2CFFE013296F999FECF12BD01BDF89A80B58083013E110521F0319601EE10E025
:20514000F2CF0E940AA0E4EDF2E0949108C08091C00085FFFCCF9093C60031969491992301
:20516000B1F7ECEFF2E0949108C08091C00085FFFCCF9093C600319694919923B1F7809183
:20518000C00085FFFCCF8AE08093C60002C00E9433252B960FB6F894DEBF0FBECDBFCF9199
:2051A000DF911F910F910895CF93DF93C4EDD2E0FE01949108C08091C00085FFFCCF90932C
:2051C000C600319694919923B1F7EEECF4E0949108C08091C00085FFFCCF9093C60031964E
:2051E00094919923B1F78091C00085FFFCCF8AE08093C600FE019491E4EDF2E008C0809123
:20520000C00085FFFCCF9093C600319694919923B1F74091400950914109609142097091C4
:20522000430986EC94E00E941F354091440950914509609146097091470983EC94E00E94E3
:205240001F35409148095091490960914A0970914B0980EC94E00E941F3540914C0950912F
:205260004D0960914E0970914F098DEB94E00E941F35EEE1F1E007C08091C00085FFFCCFCE
:2052800031969093C60090819923B1F78091C00085FFFCCF8AE08093C600FE019491E4ED91
:2052A000F2E008C08091C00085FFFCCF9093C600319694919923B1F7E3EAF4E0949108C06D
:2052C0008091C00085FFFCCF9093C600319694919923B1F78091C00085FFFCCF8AE08093D8
:2052E000C600FE019491E4EDF2E008C08091C00085FFFCCF9093C600319694919923B1F700
:20530000409130095091310960913209709133098AE994E00E941F354091340950913509F5
:20532000609136097091370987E994E00E941F35409138095091390960913A0970913B0974
:2053400084E994E00E941F3540913C0950913D0960913E0970913F0981E994E00E941F35E4
:20536000EEE1F1E007C08091C00085FFFCCF31969093C60090819923B1F78091C00085FF2C
:20538000FCCF8AE08093C600FE019491E4EDF2E008C08091C00085FFFCCF9093C6003196A0
:2053A00094919923B1F7E3E7F4E0949108C08091C00085FFFCCF9093C60031969491992328
:2053C000B1F78091C00085FFFCCF8AE08093C600FE019491E4EDF2E008C08091C00085FFDE
:2053E000FCCF9093C600319694919923B1F7409150095091510960915209709153098AE62B
:2054000094E00E9454354091540950915509609156097091570987E694E00E9454354091F2
:2054200058095091590960915A0970915B0984E694E00E94543540915C0950915D09609198
:205440005E0970915F0981E694E00E945435EEE1F1E007C08091C00085FFFCCF3196909305
:20546000C60090819923B1F78091C00085FFFCCF8AE08093C600FE019491E4EDF2E008C0FF
:205480008091C00085FFFCCF9093C600319694919923B1F7ECE2F4E0949108C08091C00053
:2054A00085FFFCCF9093C600319694919923B1F78091C00085FFFCCF8AE08093C600FE0102
:2054C0009491E4EDF2E008C08091C00085FFFCCF9093C600319694919923B1F740916409A5
:2054E00050916509609166097091670983E294E00E941F35409168095091690960916A09C4
:2055000070916B0980E294E00E941F35EEE1F1E007C08091C00085FFFCCF31969093C60013
:2055200090819923B1F78091C00085FFFCCF8AE08093C600FE019491E4EDF2E008C08091F3
:20554000C00085FFFCCF9093C600319694919923B1F7EDE6F3E0949108C08091C00085FF1B
:20556000FCCF9093C600319694919923B1F78091C00085FFFCCF8AE08093C600FE019491A0
:20558000E4EDF2E008C08091C00085FFFCCF9093C600319694919923B1F74091600950912C
:2055A0006109609162097091630984E693E00E941F35409178095091790960917A097091BB
:2055C0007B0981E693E00E941F3540912C0950912D0960912E0970912F098EE593E00E9471
:2055E000543540916C0950916D0960916E0970916F098BE593E00E941F35409170095091A0
:205600007109609172097091730988E593E00E941F35409174095091750960917609709133
:20562000770985E593E00E941F35EEE1F1E007C08091C00085FFFCCF31969093C6009081CF
:205640009923B1F78091C00085FFFCCF8AE08093C600FE019491E4EDF2E008C08091C00023
:2056600085FFFCCF9093C600319694919923B1F7E3E4F3E0949108C08091C00085FFFCCFFB
:205680009093C600319694919923B1F78091C00085FFFCCF8AE08093C600FE019491E4ED79
:2056A000F2E008C08091C00085FFFCCF9093C600319694919923B1F74091410750914207B4
:2056C00060914307709144078AE393E00E941F354091450750914607609147077091480793
:2056E00087E393E00E941F354091490750914A0760914B0770914C0784E393E00E941F351D
:20570000EEE1F1E007C08091C00085FFFCCF31969093C60090819923B1F78091C00085FF88
:20572000FCCF8AE08093C600FE019491E4EDF2E008C08091C00085FFFCCF9093C6003196FC
:2057400094919923B1F7E6E2F3E0949108C08091C00085FFFCCF9093C60031969491992387
:20576000B1F78091C00085FFFCCF8AE08093C600FE019491E4EDF2E008C08091C00085FF3A
:20578000FCCF9093C600319694919923B1F74091ED025091EE026091EF027091F0028CE132
:2057A00093E00E941F356091F1027091F2028091F3029091F4020E94F3A0AB01BC0189E182
:2057C00093E00E941F356091F5027091F6028091F7029091F8020E9401A1AB01BC0186E146
:2057E00093E00E941F35EEE1F1E007C08091C00085FFFCCF31969093C60090819923B1F794
:205800008091C00085FFFCCF8AE08093C600DF91CF9108951F920F920FB60F920BB60F929E
:2058200011242F933F934F938F939F93EF93FF934091C600E0919804F091990431969F012C
:205840002F773070319780919A0490919B042817390739F0E85EFB4F4083309399042093BD
:205860009804FF91EF919F918F914F913F912F910F900BBE0F900FBE0F901F9018959A0152
:20588000AB01203081EE380780E0480780E0580749F182E08093C00060E079E08DE390E008
:2058A0000E948EF82150304040405040CA01B90122E030E040E050E00E948EF83093C50038
:2058C0002093C4008091C10080618093C1008091C10088608093C1008091C100806880936F
:2058E000C10008951092C00020E130E0E7CF20919A0430919B04809198049091990482176E
:20590000930719F42FEF3FEF0EC0F901E85EFB4F80812F5F3F4F2F77307030939B042093C4
:205920009A04282F30E0C901089580919A0490919B049093990480939804089508952F9222
:205940003F924F925F926F927F928F929F92AF92BF92CF92DF92EF92FF920F931F93DF9304
:20596000CF93CDB7DEB7A0970FB6F894DEBF0FBECDBF1C016A017B014115510561057105A2
:2059800049F440E350E060E070E020E030E00E94582D56C0882499245401422E5524662469
:2059A000772401E010E00C0F1D1F080D191DC701B601A30192010E946CF8F80160830894A5
:2059C000811C911CA11CB11CC701B601A30192010E946CF8C901DA016C017D01C114D104FD
:2059E000E104F104F1F681E0E82EF12CEC0EFD1EE80CF91C3E010894611C711CD501C401B4
:205A00000197A109B1096C01C818D90816C0F601EE0DFF1D40814A3010F4405D01C0495C36
:205A2000552747FD5095652F752FC10120E030E00E94582D0894E108F1086E147F0439F7DD
:205A4000A0960FB6F894DEBF0FBECDBFCF91DF911F910F91FF90EF90DF90CF90BF90AF903F
:205A60009F908F907F906F905F904F903F902F9008952115310539F48091C00085FFFCCF18
:205A80004093C60008950E949F2C0895EF92FF920F931F939A01E62EFF2400E010E0B80105
:205AA000A7010E94392D1F910F91FF90EF900895EF92FF920F931F93CF93DF93EC017A0199
:205AC0008B012115310539F48091C00085FFFCCFE092C6001BC02A303105B1F477FF10C0F3
:205AE0004DE250E060E070E020E030E00E94582D10950095F094E094E11CF11C011D111DF8
:205B0000CE01B801A7012AE00E949F2CDF91CF911F910F91FF90EF900895EF92FF920F935F
:205B20001F937B019A010027F7FC0095102FB801A7010E94582D1F910F91FF90EF9008952B
:205B40000F931F938C014DE050E060E070E020E030E00E94582DC8014AE050E060E070E08D
:205B600020E030E00E94582D1F910F910895CF92DF92EF92FF920F931F938C019A016B0135
:205B8000EE24FF24B701A6010E94392DC8010E94A02D1F910F91FF90EF90DF90CF90089568
:205BA0009F92AF92BF92CF92DF92EF92FF920F931F93CF93DF93EC017A018B01922ECB0196
:205BC000BA0120E030E040E050E00E9474F488236CF4CE014DE250E060E070E020E030E0C7
:205BE0000E94582D17FB109517F91095AA2420E030E040E05FE30BC0CA01B90120E030E072
:205C000040E251E40E947BF49B01AC01A394A91498F3C801B7010E949BF37B018C010E94F8
:205C2000E8F45B016C010E9414F59B01AC01C801B7010E949AF37B018C01CE01B601A501E6
:205C40002AE030E00E94392D9920A1F1EFE1F1E007C08091C00085FFFCCF31969093C6009F
:205C600090819923B1F726C0C801B70120E030E040E251E40E9454F77B018C010E94E3F472
:205C80005B016C01CC24B7FCC094DC2CCE01B601A5012AE030E00E94582DC601B5010E94B0
:205CA00016F59B01AC01C801B7010E949AF37B018C019A949920C1F6DF91CF911F910F9119
:205CC000FF90EF90DF90CF90BF90AF909F9008950E94D02D0895EF92FF920F931F93CF938A
:205CE000DF93EC01E0909102F09092020091930210919402688179818A819B81A801970186
:205D00000E9474F4882324F4E882F9820A831B83E0909502F0909602009197021091980222
:205D20006C817D818E819F81A80197010E9474F4882324F4EC82FD820E831F83E090990210
:205D4000F0909A0200919B0210919C02688579858A859B85A80197010E9474F4882324F492
:205D6000E886F9860A871B87E0909D02F0909E0200919F021091A002688179818A819B8155
:205D8000A80197010E9482F6181624F4E882F9820A831B83E090A102F090A2020091A302E5
:205DA0001091A4026C817D818E819F81A80197010E9482F6181624F4EC82FD820E831F83C1
:205DC000E090A502F090A6020091A7021091A802688579858A859B85A80197010E9482F68A
:205DE000181624F4E886F9860A871B87DF91CF911F910F91FF90EF90089580915F0708955E
:205E00000F931F93CF93DF938130910549F46F5F7F4F09F046C08DE994E00E94272241C065
:205E2000892B09F03EC06F5F7F4FD9F583EB93E0909368068093670680916E06882321F01A
:205E40008BE696E00E944E8AC3E2D6E003EB13E005C06F9784E0CD3ED80751F01983088324
:205E60008F818823B1F3CE0104960E944E8AF1CF83EB93E0998388838F81882321F0CE017D
:205E800004960E944E8A83EB93E09093CD048093CC048091D304882321F080ED94E00E940F
:205EA0004E8ADF91CF911F910F91089580E090E06FEF7FEF0E94002F089581E090E06FEF14
:205EC0007FEF0E94002F08950E94DDA080915F07882309F03AC081E080935F07809162075E
:205EE00090916307A0916407B09165078093660790936707A0936807B0936907E4EFF4E0C1
:205F0000949108C08091C00085FFFCCF9093C600319694919923B1F7E5E0F5E0949108C0B4
:205F20008091C00085FFFCCF9093C600319694919923B1F78091C00085FFFCCF8AE080936B
:205F4000C6008BEF94E00E9431E20895F8940E94DDA05E9A10924D075E9A10924E07159A04
:205F600010924F075E9AE4EFF4E0949108C08091C00085FFFCCF9093C600319694919923EC
:205F8000B1F7E4E8F5E0949108C08091C00085FFFCCF9093C600319694919923B1F7809161
:205FA000C00085FFFCCF8AE08093C6008BE795E00E9440E2FFCF0E9423F160936C077093F7
:205FC0006D0780936E0790936F07E0919507F0919607E956F84F80818823A9F4E3EAF5E090
:205FE000949108C08091C00085FFFCCF9093C600319694919923B1F78091C00085FFFCCF3B
:206000008AE08093C60008950E9423F160936C0770936D0780936E0790936F0708956F924E
:206020007F928F929F92AF92BF92CF92DF92EF92FF920F931F93F82E609174077091750724
:206040008091760790917707209178073091790740917A0750917B070E948FF63B014C013D
:2060600000D000D000D00DB71EB70F5F1F4F6091870270918802882777FD8095982F0E9495
:2060800016F52091AF023091B0024091B1025091B2020E9454F720E030E040E752E40E940B
:2060A0007BF420E030E048EC52E40E947BF45B016C01F8016082718282829382F4828091AF
:2060C0005407858381E397E060E877E044E757E020E001E032E0E32E0E942F5A80918007BA
:2060E00090918107A0918207B09183078093310790933207A0933307B09334078091840744
:2061000090918507A0918607B09187078093350790933607A0933707B09338078091880703
:2061200090918907A0918A07B0918B078093390790933A07A0933B07B0933C0780918C07C3
:2061400090918D07A0918E07B0918F0780933D0790933E07A0933F07B09340078DB79EB792
:2061600006960FB6F8949EBF0FBE8DBF0E9423F160936C0770936D0780936E0790936F0708
:206180001F910F91FF90EF90DF90CF90BF90AF909F908F907F906F9008954F925F926F9279
:2061A0007F928F929F92AF92BF92CF92DF92EF92FF920F931F93DF93CF9300D000D0CDB7BA
:2061C000DEB780E897E00E946B2E0E9423F160936C0770936D0780936E0790936F0780914B
:2061E000800790918107A0918207B091830789839A83AB83BC8360913107709132078091E0
:2062000033079091340729813A814B815C810E9474F4882309F09DC0409084075090850708
:20622000609086077090870760913507709136078091370790913807A30192010E9474F4F8
:20624000882309F086C000D0CDB6DEB60894C11CD11CE0908807F090890700918A07109135
:206260008B076091AF027091B0028091B1029091B20220E030E040E752E40E947BF44B01D4
:206280005C0184E597E0D6018D939C9369817A818B819C81A3019201ECE8CE2EE7E0DE2EB3
:2062A0000E9419650F900F908091800790918107A0918207B0918307809331079093320713
:2062C000A0933307B09334078091840790918507A0918607B091870780933507909336074E
:2062E000A0933707B09338078091880790918907A0918A07B0918B078093390790933A070E
:20630000A0933B07B0933C0780918C0790918D07A0918E07B0918F0780933D0790933E07CD
:20632000A0933F07B09340070F900F900F900F90CF91DF911F910F91FF90EF90DF90CF90E2
:20634000BF90AF909F908F907F906F905F904F90089500D0CDB6DEB60894C11CD11C4090CB
:206360008407509085076090860770908707E0908807F090890700918A0710918B076091C6
:20638000870270918802882777FD8095982F0E9416F52091AF023091B0024091B102509103
:2063A000B2020E9454F720E030E040E752E40E947BF420E030E048EC52E40E947BF44B01E7
:2063C0005C0184E597E0F601918380835FCF8CE994E00E94952CE6EAF5E0949108C0809155
:2063E000C00085FFFCCF9093C600319694919923B1F7409162075091630760916407709173
:2064000065074F5F5F4F6F4F7F4F8CE994E02AE030E00E94582D8091C00085FFFCCF8AE074
:206420008093C6000E94DB2F08954F925F926F927F928F929F92AF92BF92CF92DF92EF921F
:20644000FF920F931F934090AF025090B0026090B1027090B2020F2EF0E0AF2EF0E8BF2E3E
:20646000FBEBCF2EF5E4DF2EF02DA092AF02B092B002C092B102D092B20260933107709316
:206480003207809333079093340720933507309336074093370750933807E0923907F092C2
:2064A0003A0700933B0710933C0700D0E4E5F7E0ADB7BEB71296FC93EE931197FDE3CF2E5A
:2064C000F7E0DF2E0F2EF0E08F2EF0E09F2EF8ECAF2EF2E4BF2EF02D0E9419650F900F9072
:2064E0000E94F3984092AF025092B0026092B1027092B2021F910F91FF90EF90DF90CF90D1
:20650000BF90AF909F908F907F906F905F904F9008958091AF029091B002A091B102B0916C
:20652000B20280939B0790939C07A0939D07B0939E078091870290918802909330078093BB
:206540002F0784E690E090938802809387020E9423F160936C0770936D0780936E079093A4
:206560006F0781E00E94F997089580E00E94F99780919B0790919C07A0919D07B0919E07B1
:206580008093AF029093B002A093B102B093B20280912F079091300790938802809387029D
:2065A0000E9423F160936C0770936D0780936E0790936F0708952F923F924F925F926F9225
:2065C0007F928F929F92AF92BF92CF92DF92EF92FF920F931F93DF93CF93CDB7DEB76C979E
:2065E0000FB6F894DEBF0FBECDBF9C8F8B8F8330910508F00BC2FC01E559F74FB4901C011F
:20660000220C331C220C331C91012F5C384F3E832D8380E090E0A0E0B0E0F901808391837A
:20662000A283B38360913107709132078091330790913407209135073091360740913707FB
:2066400050913807E0903907F0903A0700913B0710913C07BDE3CB2EB7E0DB2E0E943D5F7B
:20666000F101E259F74FE590F590059114916B2D772767FD7095882777FD8095982F0E9432
:2066800016F569837A838B839C8391012058384F38872F83C801B70120E030E040EC5FE3D8
:2066A0000E9454F729813A814B815C810E9454F7AF81B8856D937D938D939C931397F1018A
:2066C000E958FD4FFA87E98760817181828193816093AF027093B0028093B1029093B2025C
:2066E00000D0CDB6DEB60894C11CD11C40908007509081076090820770908307209184074F
:206700003091850740918607509187072B873C874D875E87E0908807F090890700918A0700
:2067200010918B0720E030E040E752E40E947BF44B015C01E4E5F7E0D601ED93FC93C301B5
:20674000B2012B853C854D855E85ACE8CA2EA7E0DA2E0E9419650F900F900E94F39820E0BA
:2067600030E040E050E0AD81BE812D933D934D935C93139760913107709132078091330795
:206780009091340720913507309136074091370750913807E0903907F0903A0700913B073F
:2067A00010913C07FDE3CF2EF7E0DF2E0E943D5FF101E658F74F4590559065907490C30109
:2067C000B201905829813A814B815C810E9454F7EF81F885608371838283938300D0CDB6F1
:2067E000DEB60894C11CD11C209180073091810740918207509183072F87388B498B5A8B27
:206800008091840790918507A0918607B09187078B8B9C8BAD8BBE8BE0908807F0908907D5
:2068200000918A0710918B076091AF027091B0028091B1029091B20220E030E040E752E4A8
:206840000E947BF44B015C01E4E5F7E0D601ED93FC936F85788989899A892B893C894D897F
:206860005E89ECE8CE2EE7E0DE2E0E9419650F900F900E94F398C301B201A30192010E94B3
:206880009BF329813A814B815C810E9454F7AF81B8856D937D938D939C931397E985FA850C
:2068A000608171818281938120E030E040E05FE30E9454F76093AF027093B0028093B10270
:2068C0009093B20200D0CDB6DEB60894C11CD11C40908007509081076090820770908307D2
:2068E000209184073091850740918607509187072F8B388F498F5A8FE0908807F0908907F1
:2069000000918A0710918B0720E030E040E752E40E947BF44B015C01E4E5F7E0D601ED9304
:20692000FC93C301B2012F89388D498D5A8DBCE8CB2EB7E0DB2E0E9419650F900F900E94DA
